{
  "contractName": "ExamRecords",
  "abi": [
    {
      "inputs": [],
      "stateMutability": "nonpayable",
      "type": "constructor"
    },
    {
      "anonymous": false,
      "inputs": [
        {
          "indexed": false,
          "internalType": "string",
          "name": "studentId",
          "type": "string"
        },
        {
          "indexed": false,
          "internalType": "string",
          "name": "courseName",
          "type": "string"
        },
        {
          "indexed": false,
          "internalType": "uint256",
          "name": "semester",
          "type": "uint256"
        },
        {
          "indexed": false,
          "internalType": "uint256",
          "name": "score",
          "type": "uint256"
        }
      ],
      "name": "RecordAdded",
      "type": "event"
    },
    {
      "anonymous": false,
      "inputs": [
        {
          "indexed": false,
          "internalType": "string",
          "name": "studentId",
          "type": "string"
        },
        {
          "indexed": false,
          "internalType": "string",
          "name": "courseName",
          "type": "string"
        },
        {
          "indexed": false,
          "internalType": "uint256",
          "name": "semester",
          "type": "uint256"
        }
      ],
      "name": "RecordVerified",
      "type": "event"
    },
    {
      "inputs": [],
      "name": "admin",
      "outputs": [
        {
          "internalType": "address",
          "name": "",
          "type": "address"
        }
      ],
      "stateMutability": "view",
      "type": "function",
      "constant": true
    },
    {
      "inputs": [
        {
          "internalType": "string",
          "name": "_studentId",
          "type": "string"
        },
        {
          "internalType": "string",
          "name": "_courseName",
          "type": "string"
        },
        {
          "internalType": "uint256",
          "name": "_semester",
          "type": "uint256"
        },
        {
          "internalType": "uint256",
          "name": "_score",
          "type": "uint256"
        }
      ],
      "name": "addRecord",
      "outputs": [],
      "stateMutability": "nonpayable",
      "type": "function"
    },
    {
      "inputs": [
        {
          "internalType": "string",
          "name": "_studentId",
          "type": "string"
        },
        {
          "internalType": "string",
          "name": "_courseName",
          "type": "string"
        },
        {
          "internalType": "uint256",
          "name": "_semester",
          "type": "uint256"
        }
      ],
      "name": "verifyRecord",
      "outputs": [],
      "stateMutability": "nonpayable",
      "type": "function"
    },
    {
      "inputs": [
        {
          "internalType": "string",
          "name": "_studentId",
          "type": "string"
        },
        {
          "internalType": "string",
          "name": "_courseName",
          "type": "string"
        },
        {
          "internalType": "uint256",
          "name": "_semester",
          "type": "uint256"
        }
      ],
      "name": "getRecord",
      "outputs": [
        {
          "internalType": "string",
          "name": "",
          "type": "string"
        },
        {
          "internalType": "uint256",
          "name": "",
          "type": "uint256"
        },
        {
          "internalType": "uint256",
          "name": "",
          "type": "uint256"
        },
        {
          "internalType": "bool",
          "name": "",
          "type": "bool"
        }
      ],
      "stateMutability": "view",
      "type": "function",
      "constant": true
    },
    {
      "inputs": [
        {
          "internalType": "address",
          "name": "newAdmin",
          "type": "address"
        }
      ],
      "name": "changeAdmin",
      "outputs": [],
      "stateMutability": "nonpayable",
      "type": "function"
    }
  ],
  "bytecode": "0x608060405234801561000f575f80fd5b50335f806101000a81548173ffffffffffffffffffffffffffffffffffffffff021916908373ffffffffffffffffffffffffffffffffffffffff1602179055505f73ffffffffffffffffffffffffffffffffffffffff165f8054906101000a900473ffffffffffffffffffffffffffffffffffffffff1673ffffffffffffffffffffffffffffffffffffffff16036100dc576040517f08c379a00000000000000000000000000000000000000000000000000000000081526004016100d39061013b565b60405180910390fd5b610159565b5f82825260208201905092915050565b7f41646d696e20616464726573732063616e6e6f74206265207a65726f000000005f82015250565b5f610125601c836100e1565b9150610130826100f1565b602082019050919050565b5f6020820190508181035f83015261015281610119565b9050919050565b611360806101665f395ff3fe608060405234801561000f575f80fd5b5060043610610055575f3560e01c806301e8292a14610059578063061c7a951461008c5780638f283970146100a8578063c04045b8146100c4578063f851a440146100e0575b5f80fd5b610073600480360381019061006e9190610a2d565b6100fe565b6040516100839493929190610b58565b60405180910390f35b6100a660048036038101906100a19190610ba2565b610340565b005b6100c260048036038101906100bd9190610c98565b610564565b005b6100de60048036038101906100d99190610a2d565b6106a1565b005b6100e861088a565b6040516100f59190610cd2565b60405180910390f35b60605f805f8087868860405160200161011993929190610d45565b60405160208183030381529060405280519060200120905060015f8281526020019081526020015f2060040160019054906101000a900460ff16610192576040517f08c379a000000000000000000000000000000000000000000000000000000000815260040161018990610dc3565b60405180910390fd5b5f60015f8381526020019081526020015f206040518060c00160405290815f820180546101be90610e0e565b80601f01602080910402602001604051908101604052809291908181526020018280546101ea90610e0e565b80156102355780601f1061020c57610100808354040283529160200191610235565b820191905f5260205f20905b81548152906001019060200180831161021857829003601f168201915b5050505050815260200160018201805461024e90610e0e565b80601f016020809104026020016040519081016040528092919081815260200182805461027a90610e0e565b80156102c55780601f1061029c576101008083540402835291602001916102c5565b820191905f5260205f20905b8154815290600101906020018083116102a857829003601f168201915b505050505081526020016002820154815260200160038201548152602001600482015f9054906101000a900460ff161515151581526020016004820160019054906101000a900460ff161515151581525050905080602001518160400151826060015183608001519550955095509550505093509350935093565b5f8054906101000a900473ffffffffffffffffffffffffffffffffffffffff1673ffffffffffffffffffffffffffffffffffffffff163373ffffffffffffffffffffffffffffffffffffffff16146103cd576040517f08c379a00000000000000000000000000000000000000000000000000000000081526004016103c490610eae565b60405180910390fd5b5f8483856040516020016103e393929190610d45565b60405160208183030381529060405280519060200120905060015f8281526020019081526020015f2060040160019054906101000a900460ff161561045d576040517f08c379a000000000000000000000000000000000000000000000000000000000815260040161045490610f3c565b60405180910390fd5b6040518060c001604052808681526020018581526020018481526020018381526020015f151581526020016001151581525060015f8381526020019081526020015f205f820151815f0190816104b391906110f7565b5060208201518160010190816104c991906110f7565b5060408201518160020155606082015181600301556080820151816004015f6101000a81548160ff02191690831515021790555060a08201518160040160016101000a81548160ff0219169083151502179055509050507ff66341acda2807266948d956ccc8f16d2d464e02423d8f249592e67ffba648b88585858560405161055594939291906111c6565b60405180910390a15050505050565b5f8054906101000a900473ffffffffffffffffffffffffffffffffffffffff1673ffffffffffffffffffffffffffffffffffffffff163373ffffffffffffffffffffffffffffffffffffffff16146105f1576040517f08c379a00000000000000000000000000000000000000000000000000000000081526004016105e890610eae565b60405180910390fd5b5f73ffffffffffffffffffffffffffffffffffffffff168173ffffffffffffffffffffffffffffffffffffffff160361065f576040517f08c379a000000000000000000000000000000000000000000000000000000000815260040161065690611261565b60405180910390fd5b805f806101000a81548173ffffffffffffffffffffffffffffffffffffffff021916908373ffffffffffffffffffffffffffffffffffffffff16021790555050565b5f8054906101000a900473ffffffffffffffffffffffffffffffffffffffff1673ffffffffffffffffffffffffffffffffffffffff163373ffffffffffffffffffffffffffffffffffffffff161461072e576040517f08c379a000000000000000000000000000000000000000000000000000000000815260040161072590610eae565b60405180910390fd5b5f83828460405160200161074493929190610d45565b60405160208183030381529060405280519060200120905060015f8281526020019081526020015f2060040160019054906101000a900460ff166107bd576040517f08c379a00000000000000000000000000000000000000000000000000000000081526004016107b490610dc3565b60405180910390fd5b60015f8281526020019081526020015f206004015f9054906101000a900460ff161561081e576040517f08c379a0000000000000000000000000000000000000000000000000000000008152600401610815906112c9565b60405180910390fd5b6001805f8381526020019081526020015f206004015f6101000a81548160ff0219169083151502179055507f5401b54bb0cc790e7011c8b5f5c8b2f7dc727b72ebf75e6ca57e9f6a338fac7f84848460405161087c939291906112e7565b60405180910390a150505050565b5f8054906101000a900473ffffffffffffffffffffffffffffffffffffffff1681565b5f604051905090565b5f80fd5b5f80fd5b5f80fd5b5f80fd5b5f601f19601f8301169050919050565b7f4e487b71000000000000000000000000000000000000000000000000000000005f52604160045260245ffd5b61090c826108c6565b810181811067ffffffffffffffff8211171561092b5761092a6108d6565b5b80604052505050565b5f61093d6108ad565b90506109498282610903565b919050565b5f67ffffffffffffffff821115610968576109676108d6565b5b610971826108c6565b9050602081019050919050565b828183375f83830152505050565b5f61099e6109998461094e565b610934565b9050828152602081018484840111156109ba576109b96108c2565b5b6109c584828561097e565b509392505050565b5f82601f8301126109e1576109e06108be565b5b81356109f184826020860161098c565b91505092915050565b5f819050919050565b610a0c816109fa565b8114610a16575f80fd5b50565b5f81359050610a2781610a03565b92915050565b5f805f60608486031215610a4457610a436108b6565b5b5f84013567ffffffffffffffff811115610a6157610a606108ba565b5b610a6d868287016109cd565b935050602084013567ffffffffffffffff811115610a8e57610a8d6108ba565b5b610a9a868287016109cd565b9250506040610aab86828701610a19565b9150509250925092565b5f81519050919050565b5f82825260208201905092915050565b5f5b83811015610aec578082015181840152602081019050610ad1565b5f8484015250505050565b5f610b0182610ab5565b610b0b8185610abf565b9350610b1b818560208601610acf565b610b24816108c6565b840191505092915050565b610b38816109fa565b82525050565b5f8115159050919050565b610b5281610b3e565b82525050565b5f6080820190508181035f830152610b708187610af7565b9050610b7f6020830186610b2f565b610b8c6040830185610b2f565b610b996060830184610b49565b95945050505050565b5f805f8060808587031215610bba57610bb96108b6565b5b5f85013567ffffffffffffffff811115610bd757610bd66108ba565b5b610be3878288016109cd565b945050602085013567ffffffffffffffff811115610c0457610c036108ba565b5b610c10878288016109cd565b9350506040610c2187828801610a19565b9250506060610c3287828801610a19565b91505092959194509250565b5f73ffffffffffffffffffffffffffffffffffffffff82169050919050565b5f610c6782610c3e565b9050919050565b610c7781610c5d565b8114610c81575f80fd5b50565b5f81359050610c9281610c6e565b92915050565b5f60208284031215610cad57610cac6108b6565b5b5f610cba84828501610c84565b91505092915050565b610ccc81610c5d565b82525050565b5f602082019050610ce55f830184610cc3565b92915050565b5f81905092915050565b5f610cff82610ab5565b610d098185610ceb565b9350610d19818560208601610acf565b80840191505092915050565b5f819050919050565b610d3f610d3a826109fa565b610d25565b82525050565b5f610d508286610cf5565b9150610d5c8285610d2e565b602082019150610d6c8284610cf5565b9150819050949350505050565b7f5265636f726420646f6573206e6f7420657869737400000000000000000000005f82015250565b5f610dad601583610abf565b9150610db882610d79565b602082019050919050565b5f6020820190508181035f830152610dda81610da1565b9050919050565b7f4e487b71000000000000000000000000000000000000000000000000000000005f52602260045260245ffd5b5f6002820490506001821680610e2557607f821691505b602082108103610e3857610e37610de1565b5b50919050565b7f4f6e6c792061646d696e2063616e20706572666f726d207468697320616374695f8201527f6f6e000000000000000000000000000000000000000000000000000000000000602082015250565b5f610e98602283610abf565b9150610ea382610e3e565b604082019050919050565b5f6020820190508181035f830152610ec581610e8c565b9050919050565b7f5265636f726420666f7220746869732073747564656e742c20636f757273652c5f8201527f20616e642073656d657374657220616c72656164792065786973747300000000602082015250565b5f610f26603c83610abf565b9150610f3182610ecc565b604082019050919050565b5f6020820190508181035f830152610f5381610f1a565b9050919050565b5f819050815f5260205f209050919050565b5f6020601f8301049050919050565b5f82821b905092915050565b5f60088302610fb67fffffffffffffffffffffffffffffffffffffffffffffffffffffffffffffffff82610f7b565b610fc08683610f7b565b95508019841693508086168417925050509392505050565b5f819050919050565b5f610ffb610ff6610ff1846109fa565b610fd8565b6109fa565b9050919050565b5f819050919050565b61101483610fe1565b61102861102082611002565b848454610f87565b825550505050565b5f90565b61103c611030565b61104781848461100b565b505050565b5b8181101561106a5761105f5f82611034565b60018101905061104d565b5050565b601f8211156110af5761108081610f5a565b61108984610f6c565b81016020851015611098578190505b6110ac6110a485610f6c565b83018261104c565b50505b505050565b5f82821c905092915050565b5f6110cf5f19846008026110b4565b1980831691505092915050565b5f6110e783836110c0565b9150826002028217905092915050565b61110082610ab5565b67ffffffffffffffff811115611119576111186108d6565b5b6111238254610e0e565b61112e82828561106e565b5f60209050601f83116001811461115f575f841561114d578287015190505b61115785826110dc565b8655506111be565b601f19841661116d86610f5a565b5f5b828110156111945784890151825560018201915060208501945060208101905061116f565b868310156111b157848901516111ad601f8916826110c0565b8355505b6001600288020188555050505b505050505050565b5f6080820190508181035f8301526111de8187610af7565b905081810360208301526111f28186610af7565b90506112016040830185610b2f565b61120e6060830184610b2f565b95945050505050565b7f4e65772061646d696e2063616e6e6f74206265207a65726f20616464726573735f82015250565b5f61124b602083610abf565b915061125682611217565b602082019050919050565b5f6020820190508181035f8301526112788161123f565b9050919050565b7f5265636f726420616c72656164792076657269666965640000000000000000005f82015250565b5f6112b3601783610abf565b91506112be8261127f565b602082019050919050565b5f6020820190508181035f8301526112e0816112a7565b9050919050565b5f6060820190508181035f8301526112ff8186610af7565b905081810360208301526113138185610af7565b90506113226040830184610b2f565b94935050505056fea264697066735822122061fef618359adb6612f6035f6739049971300340bbd0035664a4d19397e2144164736f6c63430008150033",
  "immutableReferences": {},
  "source": "// SPDX-License-Identifier: MIT\npragma solidity ^0.8.0;\n\ncontract ExamRecords {\n    struct Record {\n        string studentId;\n        string courseName;\n        uint256 semester;\n        uint256 score;\n        bool verified;\n        bool exists;\n    }\n\n    address public admin;\n    mapping(bytes32 => Record) private records;\n\n    event RecordAdded(string studentId, string courseName, uint256 semester, uint256 score);\n    event RecordVerified(string studentId, string courseName, uint256 semester);\n\n    modifier onlyAdmin() {\n        require(msg.sender == admin, \"Only admin can perform this action\");\n        _;\n    }\n\n    constructor() {\n        admin = msg.sender;\n        require(admin != address(0), \"Admin address cannot be zero\");\n    }\n\n    function addRecord(\n        string memory _studentId,\n        string memory _courseName,\n        uint256 _semester,\n        uint256 _score\n    ) public onlyAdmin {\n        // Create a unique key based on studentId, semester, and courseName\n        bytes32 recordKey = keccak256(abi.encodePacked(_studentId, _semester, _courseName));\n        \n        // Ensure the record does not already exist\n        require(!records[recordKey].exists, \"Record for this student, course, and semester already exists\");\n\n        // Add the new record\n        records[recordKey] = Record({\n            studentId: _studentId,\n            courseName: _courseName,\n            semester: _semester,\n            score: _score,\n            verified: false,\n            exists: true\n        });\n\n        emit RecordAdded(_studentId, _courseName, _semester, _score);\n    }\n\n    function verifyRecord(\n        string memory _studentId,\n        string memory _courseName,\n        uint256 _semester\n    ) public onlyAdmin {\n        // Generate the key based on studentId, courseName, and semester\n        bytes32 recordKey = keccak256(abi.encodePacked(_studentId, _semester, _courseName));\n        \n        // Check if the record exists and hasn't been verified\n        require(records[recordKey].exists, \"Record does not exist\");\n        require(!records[recordKey].verified, \"Record already verified\");\n\n        // Mark the record as verified\n        records[recordKey].verified = true;\n\n        emit RecordVerified(_studentId, _courseName, _semester);\n    }\n\n    function getRecord(\n        string memory _studentId,\n        string memory _courseName,\n        uint256 _semester\n    )\n        public\n        view\n        returns (string memory, uint256, uint256, bool)\n    {\n        // Generate the key for the requested record\n        bytes32 recordKey = keccak256(abi.encodePacked(_studentId, _semester, _courseName));\n        \n        require(records[recordKey].exists, \"Record does not exist\");\n\n        // Return the record details\n        Record memory record = records[recordKey];\n        return (\n            record.courseName,\n            record.semester,\n            record.score,\n            record.verified\n        );\n    }\n\n    function changeAdmin(address newAdmin) public onlyAdmin {\n        require(newAdmin != address(0), \"New admin cannot be zero address\");\n        admin = newAdmin;\n    }\n}\n",
  "sourcePath": "/Users/debdeepbanerjee/Desktop/Projects/Exam_Records-Blockchain-/blockchain/contracts/ExamRecords.sol",
  "compiler": {
    "name": "solc",
    "version": "0.8.21+commit.d9974bed.Emscripten.clang"
  },
  "schemaVersion": "3.4.16",
  "updatedAt": "2024-12-01T12:33:34.899Z",
  "networkType": "ethereum",
  "devdoc": {
    "kind": "dev",
    "methods": {},
    "version": 1
  },
  "userdoc": {
    "kind": "user",
    "methods": {},
    "version": 1
  }
}