{
  "contractName": "ExamRecords",
  "abi": [
    {
      "inputs": [],
      "stateMutability": "nonpayable",
      "type": "constructor"
    },
    {
      "anonymous": false,
      "inputs": [
        {
          "indexed": false,
          "internalType": "string",
          "name": "studentId",
          "type": "string"
        },
        {
          "indexed": false,
          "internalType": "string",
          "name": "examName",
          "type": "string"
        },
        {
          "indexed": false,
          "internalType": "uint256",
          "name": "score",
          "type": "uint256"
        }
      ],
      "name": "RecordAdded",
      "type": "event"
    },
    {
      "anonymous": false,
      "inputs": [
        {
          "indexed": false,
          "internalType": "string",
          "name": "studentId",
          "type": "string"
        },
        {
          "indexed": false,
          "internalType": "string",
          "name": "examName",
          "type": "string"
        }
      ],
      "name": "RecordVerified",
      "type": "event"
    },
    {
      "inputs": [],
      "name": "admin",
      "outputs": [
        {
          "internalType": "address",
          "name": "",
          "type": "address"
        }
      ],
      "stateMutability": "view",
      "type": "function"
    },
    {
      "inputs": [
        {
          "internalType": "string",
          "name": "_studentId",
          "type": "string"
        },
        {
          "internalType": "string",
          "name": "_examName",
          "type": "string"
        },
        {
          "internalType": "uint256",
          "name": "_score",
          "type": "uint256"
        }
      ],
      "name": "addRecord",
      "outputs": [],
      "stateMutability": "nonpayable",
      "type": "function"
    },
    {
      "inputs": [
        {
          "internalType": "string",
          "name": "_studentId",
          "type": "string"
        }
      ],
      "name": "verifyRecord",
      "outputs": [],
      "stateMutability": "nonpayable",
      "type": "function"
    },
    {
      "inputs": [
        {
          "internalType": "string",
          "name": "_studentId",
          "type": "string"
        }
      ],
      "name": "getRecord",
      "outputs": [
        {
          "internalType": "string",
          "name": "",
          "type": "string"
        },
        {
          "internalType": "string",
          "name": "",
          "type": "string"
        },
        {
          "internalType": "uint256",
          "name": "",
          "type": "uint256"
        },
        {
          "internalType": "bool",
          "name": "",
          "type": "bool"
        }
      ],
      "stateMutability": "view",
      "type": "function"
    }
  ],
  "bytecode": "0x608060405234801561000f575f80fd5b50335f806101000a81548173ffffffffffffffffffffffffffffffffffffffff021916908373ffffffffffffffffffffffffffffffffffffffff1602179055505f73ffffffffffffffffffffffffffffffffffffffff165f8054906101000a900473ffffffffffffffffffffffffffffffffffffffff1673ffffffffffffffffffffffffffffffffffffffff16036100dc576040517f08c379a00000000000000000000000000000000000000000000000000000000081526004016100d39061013b565b60405180910390fd5b610159565b5f82825260208201905092915050565b7f41646d696e20616464726573732063616e6e6f74206265207a65726f000000005f82015250565b5f610125601c836100e1565b9150610130826100f1565b602082019050919050565b5f6020820190508181035f83015261015281610119565b9050919050565b611090806101665f395ff3fe608060405234801561000f575f80fd5b506004361061004a575f3560e01c806311dd88451461004e5780635e66668014610081578063c40e58241461009d578063f851a440146100b9575b5f80fd5b61006860048036038101906100639190610834565b6100d7565b6040516100789493929190610927565b60405180910390f35b61009b600480360381019061009691906109a2565b6102ed565b005b6100b760048036038101906100b29190610834565b6104d0565b005b6100c16106c4565b6040516100ce9190610a69565b60405180910390f35b6060805f805f856040516020016100ee9190610abc565b6040516020818303038152906040528051906020012090505f60015f8381526020019081526020015f205f01805461012590610aff565b905003610167576040517f08c379a000000000000000000000000000000000000000000000000000000000815260040161015e90610b79565b60405180910390fd5b5f60015f8381526020019081526020015f206040518060800160405290815f8201805461019390610aff565b80601f01602080910402602001604051908101604052809291908181526020018280546101bf90610aff565b801561020a5780601f106101e15761010080835404028352916020019161020a565b820191905f5260205f20905b8154815290600101906020018083116101ed57829003601f168201915b5050505050815260200160018201805461022390610aff565b80601f016020809104026020016040519081016040528092919081815260200182805461024f90610aff565b801561029a5780601f106102715761010080835404028352916020019161029a565b820191905f5260205f20905b81548152906001019060200180831161027d57829003601f168201915b5050505050815260200160028201548152602001600382015f9054906101000a900460ff1615151515815250509050805f0151816020015182604001518360600151955095509550955050509193509193565b5f8054906101000a900473ffffffffffffffffffffffffffffffffffffffff1673ffffffffffffffffffffffffffffffffffffffff163373ffffffffffffffffffffffffffffffffffffffff161461037a576040517f08c379a000000000000000000000000000000000000000000000000000000000815260040161037190610c07565b60405180910390fd5b5f8360405160200161038c9190610abc565b6040516020818303038152906040528051906020012090505f60015f8381526020019081526020015f205f0180546103c390610aff565b905014610405576040517f08c379a00000000000000000000000000000000000000000000000000000000081526004016103fc90610c6f565b60405180910390fd5b60405180608001604052808581526020018481526020018381526020015f151581525060015f8381526020019081526020015f205f820151815f01908161044c9190610e2a565b5060208201518160010190816104629190610e2a565b50604082015181600201556060820151816003015f6101000a81548160ff0219169083151502179055509050507f2fda3ce68e3316f21c26863e3b64c0bca4dfc4d6cb5777ef08d41c56482e22218484846040516104c293929190610ef9565b60405180910390a150505050565b5f8054906101000a900473ffffffffffffffffffffffffffffffffffffffff1673ffffffffffffffffffffffffffffffffffffffff163373ffffffffffffffffffffffffffffffffffffffff161461055d576040517f08c379a000000000000000000000000000000000000000000000000000000000815260040161055490610c07565b60405180910390fd5b5f8160405160200161056f9190610abc565b6040516020818303038152906040528051906020012090505f60015f8381526020019081526020015f205f0180546105a690610aff565b9050036105e8576040517f08c379a00000000000000000000000000000000000000000000000000000000081526004016105df90610b79565b60405180910390fd5b60015f8281526020019081526020015f206003015f9054906101000a900460ff1615610649576040517f08c379a000000000000000000000000000000000000000000000000000000000815260040161064090610f86565b60405180910390fd5b6001805f8381526020019081526020015f206003015f6101000a81548160ff0219169083151502179055507f3040b390146c69338e9bea2f176c79c2b1b5d3c7b0cc76c35a049b75733d1eb58260015f8481526020019081526020015f206001016040516106b8929190611025565b60405180910390a15050565b5f8054906101000a900473ffffffffffffffffffffffffffffffffffffffff1681565b5f604051905090565b5f80fd5b5f80fd5b5f80fd5b5f80fd5b5f601f19601f8301169050919050565b7f4e487b71000000000000000000000000000000000000000000000000000000005f52604160045260245ffd5b61074682610700565b810181811067ffffffffffffffff8211171561076557610764610710565b5b80604052505050565b5f6107776106e7565b9050610783828261073d565b919050565b5f67ffffffffffffffff8211156107a2576107a1610710565b5b6107ab82610700565b9050602081019050919050565b828183375f83830152505050565b5f6107d86107d384610788565b61076e565b9050828152602081018484840111156107f4576107f36106fc565b5b6107ff8482856107b8565b509392505050565b5f82601f83011261081b5761081a6106f8565b5b813561082b8482602086016107c6565b91505092915050565b5f60208284031215610849576108486106f0565b5b5f82013567ffffffffffffffff811115610866576108656106f4565b5b61087284828501610807565b91505092915050565b5f81519050919050565b5f82825260208201905092915050565b5f5b838110156108b2578082015181840152602081019050610897565b5f8484015250505050565b5f6108c78261087b565b6108d18185610885565b93506108e1818560208601610895565b6108ea81610700565b840191505092915050565b5f819050919050565b610907816108f5565b82525050565b5f8115159050919050565b6109218161090d565b82525050565b5f6080820190508181035f83015261093f81876108bd565b9050818103602083015261095381866108bd565b905061096260408301856108fe565b61096f6060830184610918565b95945050505050565b610981816108f5565b811461098b575f80fd5b50565b5f8135905061099c81610978565b92915050565b5f805f606084860312156109b9576109b86106f0565b5b5f84013567ffffffffffffffff8111156109d6576109d56106f4565b5b6109e286828701610807565b935050602084013567ffffffffffffffff811115610a0357610a026106f4565b5b610a0f86828701610807565b9250506040610a208682870161098e565b9150509250925092565b5f73ffffffffffffffffffffffffffffffffffffffff82169050919050565b5f610a5382610a2a565b9050919050565b610a6381610a49565b82525050565b5f602082019050610a7c5f830184610a5a565b92915050565b5f81905092915050565b5f610a968261087b565b610aa08185610a82565b9350610ab0818560208601610895565b80840191505092915050565b5f610ac78284610a8c565b915081905092915050565b7f4e487b71000000000000000000000000000000000000000000000000000000005f52602260045260245ffd5b5f6002820490506001821680610b1657607f821691505b602082108103610b2957610b28610ad2565b5b50919050565b7f5265636f726420646f6573206e6f7420657869737400000000000000000000005f82015250565b5f610b63601583610885565b9150610b6e82610b2f565b602082019050919050565b5f6020820190508181035f830152610b9081610b57565b9050919050565b7f4f6e6c792061646d696e2063616e20706572666f726d207468697320616374695f8201527f6f6e000000000000000000000000000000000000000000000000000000000000602082015250565b5f610bf1602283610885565b9150610bfc82610b97565b604082019050919050565b5f6020820190508181035f830152610c1e81610be5565b9050919050565b7f5265636f726420616c72656164792065786973747300000000000000000000005f82015250565b5f610c59601583610885565b9150610c6482610c25565b602082019050919050565b5f6020820190508181035f830152610c8681610c4d565b9050919050565b5f819050815f5260205f209050919050565b5f6020601f8301049050919050565b5f82821b905092915050565b5f60088302610ce97fffffffffffffffffffffffffffffffffffffffffffffffffffffffffffffffff82610cae565b610cf38683610cae565b95508019841693508086168417925050509392505050565b5f819050919050565b5f610d2e610d29610d24846108f5565b610d0b565b6108f5565b9050919050565b5f819050919050565b610d4783610d14565b610d5b610d5382610d35565b848454610cba565b825550505050565b5f90565b610d6f610d63565b610d7a818484610d3e565b505050565b5b81811015610d9d57610d925f82610d67565b600181019050610d80565b5050565b601f821115610de257610db381610c8d565b610dbc84610c9f565b81016020851015610dcb578190505b610ddf610dd785610c9f565b830182610d7f565b50505b505050565b5f82821c905092915050565b5f610e025f1984600802610de7565b1980831691505092915050565b5f610e1a8383610df3565b9150826002028217905092915050565b610e338261087b565b67ffffffffffffffff811115610e4c57610e4b610710565b5b610e568254610aff565b610e61828285610da1565b5f60209050601f831160018114610e92575f8415610e80578287015190505b610e8a8582610e0f565b865550610ef1565b601f198416610ea086610c8d565b5f5b82811015610ec757848901518255600182019150602085019450602081019050610ea2565b86831015610ee45784890151610ee0601f891682610df3565b8355505b6001600288020188555050505b505050505050565b5f6060820190508181035f830152610f1181866108bd565b90508181036020830152610f2581856108bd565b9050610f3460408301846108fe565b949350505050565b7f5265636f726420616c72656164792076657269666965640000000000000000005f82015250565b5f610f70601783610885565b9150610f7b82610f3c565b602082019050919050565b5f6020820190508181035f830152610f9d81610f64565b9050919050565b5f8154610fb081610aff565b610fba8186610885565b9450600182165f8114610fd45760018114610fea5761101c565b60ff19831686528115156020028601935061101c565b610ff385610c8d565b5f5b8381101561101457815481890152600182019150602081019050610ff5565b808801955050505b50505092915050565b5f6040820190508181035f83015261103d81856108bd565b905081810360208301526110518184610fa4565b9050939250505056fea26469706673582212208438767c77aee7db8e5225f90804868d67ddde9cb730ef9b1ab895152966150664736f6c63430008150033",
  "immutableReferences": {},
  "source": "// SPDX-License-Identifier: MIT\npragma solidity ^0.8.0;\n\ncontract ExamRecords {\n    struct Record {\n        string studentId;\n        string examName;\n        uint256 score;\n        bool verified;\n    }\n\n    address public admin;\n    mapping(bytes32 => Record) private records; // Maps hashed studentId to their record\n\n    event RecordAdded(string studentId, string examName, uint256 score);\n    event RecordVerified(string studentId, string examName);\n\n    modifier onlyAdmin() {\n        require(msg.sender == admin, \"Only admin can perform this action\");\n        _;\n    }\n\n    constructor() {\n        admin = msg.sender;\n        require(admin != address(0), \"Admin address cannot be zero\");\n    }\n\n    function addRecord(\n        string memory _studentId,\n        string memory _examName,\n        uint256 _score\n    ) public onlyAdmin {\n        bytes32 recordKey = keccak256(abi.encodePacked(_studentId));\n        require(bytes(records[recordKey].studentId).length == 0, \"Record already exists\");\n        records[recordKey] = Record(_studentId, _examName, _score, false);\n        emit RecordAdded(_studentId, _examName, _score);\n    }\n\n    function verifyRecord(string memory _studentId) public onlyAdmin {\n        bytes32 recordKey = keccak256(abi.encodePacked(_studentId));\n        require(bytes(records[recordKey].studentId).length != 0, \"Record does not exist\");\n        require(!records[recordKey].verified, \"Record already verified\");\n        records[recordKey].verified = true;\n        emit RecordVerified(_studentId, records[recordKey].examName);\n    }\n\n    function getRecord(\n        string memory _studentId\n    )\n        public\n        view\n        returns (string memory, string memory, uint256, bool)\n    {\n        bytes32 recordKey = keccak256(abi.encodePacked(_studentId));\n        require(bytes(records[recordKey].studentId).length != 0, \"Record does not exist\");\n        Record memory record = records[recordKey];\n        return (\n            record.studentId,\n            record.examName,\n            record.score,\n            record.verified\n        );\n    }\n}\n",
  "sourcePath": "/Users/debdeepbanerjee/Desktop/Projects/Exam_Records-Blockchain-/blockchain/contracts/ExamRecords.sol",
  "compiler": {
    "name": "solc",
    "version": "0.8.21+commit.d9974bed.Emscripten.clang"
  },
  "schemaVersion": "3.4.16",
  "updatedAt": "2024-11-28T09:36:27.371Z",
  "devdoc": {
    "kind": "dev",
    "methods": {},
    "version": 1
  },
  "userdoc": {
    "kind": "user",
    "methods": {},
    "version": 1
  }
}