{
  "contractName": "ExamRecords",
  "abi": [
    {
      "inputs": [],
      "stateMutability": "nonpayable",
      "type": "constructor"
    },
    {
      "anonymous": false,
      "inputs": [
        {
          "indexed": false,
          "internalType": "string",
          "name": "studentId",
          "type": "string"
        },
        {
          "indexed": false,
          "internalType": "string",
          "name": "examName",
          "type": "string"
        },
        {
          "indexed": false,
          "internalType": "uint256",
          "name": "score",
          "type": "uint256"
        }
      ],
      "name": "RecordAdded",
      "type": "event"
    },
    {
      "anonymous": false,
      "inputs": [
        {
          "indexed": false,
          "internalType": "string",
          "name": "studentId",
          "type": "string"
        },
        {
          "indexed": false,
          "internalType": "string",
          "name": "examName",
          "type": "string"
        }
      ],
      "name": "RecordVerified",
      "type": "event"
    },
    {
      "inputs": [],
      "name": "admin",
      "outputs": [
        {
          "internalType": "address",
          "name": "",
          "type": "address"
        }
      ],
      "stateMutability": "view",
      "type": "function"
    },
    {
      "inputs": [
        {
          "internalType": "string",
          "name": "_studentId",
          "type": "string"
        },
        {
          "internalType": "string",
          "name": "_examName",
          "type": "string"
        },
        {
          "internalType": "uint256",
          "name": "_score",
          "type": "uint256"
        }
      ],
      "name": "addRecord",
      "outputs": [],
      "stateMutability": "nonpayable",
      "type": "function"
    },
    {
      "inputs": [
        {
          "internalType": "string",
          "name": "_studentId",
          "type": "string"
        }
      ],
      "name": "verifyRecord",
      "outputs": [],
      "stateMutability": "nonpayable",
      "type": "function"
    },
    {
      "inputs": [
        {
          "internalType": "string",
          "name": "_studentId",
          "type": "string"
        }
      ],
      "name": "getRecord",
      "outputs": [
        {
          "internalType": "string",
          "name": "",
          "type": "string"
        },
        {
          "internalType": "string",
          "name": "",
          "type": "string"
        },
        {
          "internalType": "uint256",
          "name": "",
          "type": "uint256"
        },
        {
          "internalType": "bool",
          "name": "",
          "type": "bool"
        }
      ],
      "stateMutability": "view",
      "type": "function"
    }
  ],
  "bytecode": "0x608060405234801561000f575f80fd5b50335f806101000a81548173ffffffffffffffffffffffffffffffffffffffff021916908373ffffffffffffffffffffffffffffffffffffffff160217905550610e5d8061005c5f395ff3fe608060405234801561000f575f80fd5b506004361061004a575f3560e01c806311dd88451461004e5780635e66668014610081578063c40e58241461009d578063f851a440146100b9575b5f80fd5b610068600480360381019061006391906106d1565b6100d7565b60405161007894939291906107c4565b60405180910390f35b61009b6004803603810190610096919061083f565b61026e565b005b6100b760048036038101906100b291906106d1565b6103d2565b005b6100c1610561565b6040516100ce9190610906565b60405180910390f35b6060805f805f6001866040516100ed9190610959565b90815260200160405180910390206040518060800160405290815f820180546101159061099c565b80601f01602080910402602001604051908101604052809291908181526020018280546101419061099c565b801561018c5780601f106101635761010080835404028352916020019161018c565b820191905f5260205f20905b81548152906001019060200180831161016f57829003601f168201915b505050505081526020016001820180546101a59061099c565b80601f01602080910402602001604051908101604052809291908181526020018280546101d19061099c565b801561021c5780601f106101f35761010080835404028352916020019161021c565b820191905f5260205f20905b8154815290600101906020018083116101ff57829003601f168201915b5050505050815260200160028201548152602001600382015f9054906101000a900460ff1615151515815250509050805f01518160200151826040015183606001519450945094509450509193509193565b5f8054906101000a900473ffffffffffffffffffffffffffffffffffffffff1673ffffffffffffffffffffffffffffffffffffffff163373ffffffffffffffffffffffffffffffffffffffff16146102fb576040517f08c379a00000000000000000000000000000000000000000000000000000000081526004016102f290610a3c565b60405180910390fd5b60405180608001604052808481526020018381526020018281526020015f151581525060018460405161032e9190610959565b90815260200160405180910390205f820151815f01908161034f9190610bf7565b5060208201518160010190816103659190610bf7565b50604082015181600201556060820151816003015f6101000a81548160ff0219169083151502179055509050507f2fda3ce68e3316f21c26863e3b64c0bca4dfc4d6cb5777ef08d41c56482e22218383836040516103c593929190610cc6565b60405180910390a1505050565b5f8054906101000a900473ffffffffffffffffffffffffffffffffffffffff1673ffffffffffffffffffffffffffffffffffffffff163373ffffffffffffffffffffffffffffffffffffffff161461045f576040517f08c379a000000000000000000000000000000000000000000000000000000000815260040161045690610a3c565b60405180910390fd5b60018160405161046f9190610959565b90815260200160405180910390206003015f9054906101000a900460ff16156104cd576040517f08c379a00000000000000000000000000000000000000000000000000000000081526004016104c490610d53565b60405180910390fd5b600180826040516104de9190610959565b90815260200160405180910390206003015f6101000a81548160ff0219169083151502179055507f3040b390146c69338e9bea2f176c79c2b1b5d3c7b0cc76c35a049b75733d1eb5816001836040516105379190610959565b9081526020016040518091039020600101604051610556929190610df2565b60405180910390a150565b5f8054906101000a900473ffffffffffffffffffffffffffffffffffffffff1681565b5f604051905090565b5f80fd5b5f80fd5b5f80fd5b5f80fd5b5f601f19601f8301169050919050565b7f4e487b71000000000000000000000000000000000000000000000000000000005f52604160045260245ffd5b6105e38261059d565b810181811067ffffffffffffffff82111715610602576106016105ad565b5b80604052505050565b5f610614610584565b905061062082826105da565b919050565b5f67ffffffffffffffff82111561063f5761063e6105ad565b5b6106488261059d565b9050602081019050919050565b828183375f83830152505050565b5f61067561067084610625565b61060b565b90508281526020810184848401111561069157610690610599565b5b61069c848285610655565b509392505050565b5f82601f8301126106b8576106b7610595565b5b81356106c8848260208601610663565b91505092915050565b5f602082840312156106e6576106e561058d565b5b5f82013567ffffffffffffffff81111561070357610702610591565b5b61070f848285016106a4565b91505092915050565b5f81519050919050565b5f82825260208201905092915050565b5f5b8381101561074f578082015181840152602081019050610734565b5f8484015250505050565b5f61076482610718565b61076e8185610722565b935061077e818560208601610732565b6107878161059d565b840191505092915050565b5f819050919050565b6107a481610792565b82525050565b5f8115159050919050565b6107be816107aa565b82525050565b5f6080820190508181035f8301526107dc818761075a565b905081810360208301526107f0818661075a565b90506107ff604083018561079b565b61080c60608301846107b5565b95945050505050565b61081e81610792565b8114610828575f80fd5b50565b5f8135905061083981610815565b92915050565b5f805f606084860312156108565761085561058d565b5b5f84013567ffffffffffffffff81111561087357610872610591565b5b61087f868287016106a4565b935050602084013567ffffffffffffffff8111156108a05761089f610591565b5b6108ac868287016106a4565b92505060406108bd8682870161082b565b9150509250925092565b5f73ffffffffffffffffffffffffffffffffffffffff82169050919050565b5f6108f0826108c7565b9050919050565b610900816108e6565b82525050565b5f6020820190506109195f8301846108f7565b92915050565b5f81905092915050565b5f61093382610718565b61093d818561091f565b935061094d818560208601610732565b80840191505092915050565b5f6109648284610929565b915081905092915050565b7f4e487b71000000000000000000000000000000000000000000000000000000005f52602260045260245ffd5b5f60028204905060018216806109b357607f821691505b6020821081036109c6576109c561096f565b5b50919050565b7f4f6e6c792061646d696e2063616e20706572666f726d207468697320616374695f8201527f6f6e000000000000000000000000000000000000000000000000000000000000602082015250565b5f610a26602283610722565b9150610a31826109cc565b604082019050919050565b5f6020820190508181035f830152610a5381610a1a565b9050919050565b5f819050815f5260205f209050919050565b5f6020601f8301049050919050565b5f82821b905092915050565b5f60088302610ab67fffffffffffffffffffffffffffffffffffffffffffffffffffffffffffffffff82610a7b565b610ac08683610a7b565b95508019841693508086168417925050509392505050565b5f819050919050565b5f610afb610af6610af184610792565b610ad8565b610792565b9050919050565b5f819050919050565b610b1483610ae1565b610b28610b2082610b02565b848454610a87565b825550505050565b5f90565b610b3c610b30565b610b47818484610b0b565b505050565b5b81811015610b6a57610b5f5f82610b34565b600181019050610b4d565b5050565b601f821115610baf57610b8081610a5a565b610b8984610a6c565b81016020851015610b98578190505b610bac610ba485610a6c565b830182610b4c565b50505b505050565b5f82821c905092915050565b5f610bcf5f1984600802610bb4565b1980831691505092915050565b5f610be78383610bc0565b9150826002028217905092915050565b610c0082610718565b67ffffffffffffffff811115610c1957610c186105ad565b5b610c23825461099c565b610c2e828285610b6e565b5f60209050601f831160018114610c5f575f8415610c4d578287015190505b610c578582610bdc565b865550610cbe565b601f198416610c6d86610a5a565b5f5b82811015610c9457848901518255600182019150602085019450602081019050610c6f565b86831015610cb15784890151610cad601f891682610bc0565b8355505b6001600288020188555050505b505050505050565b5f6060820190508181035f830152610cde818661075a565b90508181036020830152610cf2818561075a565b9050610d01604083018461079b565b949350505050565b7f5265636f726420616c72656164792076657269666965640000000000000000005f82015250565b5f610d3d601783610722565b9150610d4882610d09565b602082019050919050565b5f6020820190508181035f830152610d6a81610d31565b9050919050565b5f8154610d7d8161099c565b610d878186610722565b9450600182165f8114610da15760018114610db757610de9565b60ff198316865281151560200286019350610de9565b610dc085610a5a565b5f5b83811015610de157815481890152600182019150602081019050610dc2565b808801955050505b50505092915050565b5f6040820190508181035f830152610e0a818561075a565b90508181036020830152610e1e8184610d71565b9050939250505056fea264697066735822122079d2e1ac6475767464c5a7a9f7b951eb83e93882153181296dcdaf5f32caf18864736f6c63430008150033",
  "immutableReferences": {},
  "source": "// SPDX-License-Identifier: MIT\npragma solidity ^0.8.0;\n\ncontract ExamRecords {\n    struct Record {\n        string studentId;\n        string examName;\n        uint256 score;\n        bool verified;\n    }\n\n    address public admin;\n    mapping(string => Record) private records; // Maps studentId to their record\n    event RecordAdded(string studentId, string examName, uint256 score);\n    event RecordVerified(string studentId, string examName);\n\n    modifier onlyAdmin() {\n        require(msg.sender == admin, \"Only admin can perform this action\");\n        _;\n    }\n\n    constructor() {\n        admin = msg.sender;\n    }\n\n    function addRecord(\n        string memory _studentId,\n        string memory _examName,\n        uint256 _score\n    ) public onlyAdmin {\n        records[_studentId] = Record(_studentId, _examName, _score, false);\n        emit RecordAdded(_studentId, _examName, _score);\n    }\n\n    function verifyRecord(string memory _studentId) public onlyAdmin {\n        require(!records[_studentId].verified, \"Record already verified\");\n        records[_studentId].verified = true;\n        emit RecordVerified(_studentId, records[_studentId].examName);\n    }\n\n    function getRecord(\n        string memory _studentId\n    )\n        public\n        view\n        returns (string memory, string memory, uint256, bool)\n    {\n        Record memory record = records[_studentId];\n        return (\n            record.studentId,\n            record.examName,\n            record.score,\n            record.verified\n        );\n    }\n}\n",
  "sourcePath": "/Users/debdeepbanerjee/Desktop/Projects/Exam_Records-Blockchain-/blockchain/contracts/ExamRecords.sol",
  "compiler": {
    "name": "solc",
    "version": "0.8.21+commit.d9974bed.Emscripten.clang"
  },
  "schemaVersion": "3.4.16",
  "updatedAt": "2024-11-26T11:40:52.434Z",
  "devdoc": {
    "kind": "dev",
    "methods": {},
    "version": 1
  },
  "userdoc": {
    "kind": "user",
    "methods": {},
    "version": 1
  }
}