{
  "contractName": "ExamRecords",
  "abi": [
    {
      "inputs": [],
      "stateMutability": "nonpayable",
      "type": "constructor"
    },
    {
      "anonymous": false,
      "inputs": [
        {
          "indexed": false,
          "internalType": "string",
          "name": "studentId",
          "type": "string"
        },
        {
          "indexed": false,
          "internalType": "string",
          "name": "examName",
          "type": "string"
        },
        {
          "indexed": false,
          "internalType": "uint256",
          "name": "score",
          "type": "uint256"
        }
      ],
      "name": "RecordAdded",
      "type": "event"
    },
    {
      "anonymous": false,
      "inputs": [
        {
          "indexed": false,
          "internalType": "string",
          "name": "studentId",
          "type": "string"
        },
        {
          "indexed": false,
          "internalType": "string",
          "name": "examName",
          "type": "string"
        }
      ],
      "name": "RecordVerified",
      "type": "event"
    },
    {
      "inputs": [],
      "name": "admin",
      "outputs": [
        {
          "internalType": "address",
          "name": "",
          "type": "address"
        }
      ],
      "stateMutability": "view",
      "type": "function",
      "constant": true
    },
    {
      "inputs": [
        {
          "internalType": "string",
          "name": "_studentId",
          "type": "string"
        },
        {
          "internalType": "string",
          "name": "_examName",
          "type": "string"
        },
        {
          "internalType": "uint256",
          "name": "_score",
          "type": "uint256"
        }
      ],
      "name": "addRecord",
      "outputs": [],
      "stateMutability": "nonpayable",
      "type": "function"
    },
    {
      "inputs": [
        {
          "internalType": "string",
          "name": "_studentId",
          "type": "string"
        }
      ],
      "name": "verifyRecord",
      "outputs": [],
      "stateMutability": "nonpayable",
      "type": "function"
    },
    {
      "inputs": [
        {
          "internalType": "string",
          "name": "_studentId",
          "type": "string"
        }
      ],
      "name": "getRecord",
      "outputs": [
        {
          "internalType": "string",
          "name": "",
          "type": "string"
        },
        {
          "internalType": "uint256",
          "name": "",
          "type": "uint256"
        },
        {
          "internalType": "bool",
          "name": "",
          "type": "bool"
        }
      ],
      "stateMutability": "view",
      "type": "function",
      "constant": true
    },
    {
      "inputs": [
        {
          "internalType": "address",
          "name": "newAdmin",
          "type": "address"
        }
      ],
      "name": "changeAdmin",
      "outputs": [],
      "stateMutability": "nonpayable",
      "type": "function"
    }
  ],
  "bytecode": "0x608060405234801561000f575f80fd5b50335f806101000a81548173ffffffffffffffffffffffffffffffffffffffff021916908373ffffffffffffffffffffffffffffffffffffffff1602179055505f73ffffffffffffffffffffffffffffffffffffffff165f8054906101000a900473ffffffffffffffffffffffffffffffffffffffff1673ffffffffffffffffffffffffffffffffffffffff16036100dc576040517f08c379a00000000000000000000000000000000000000000000000000000000081526004016100d39061013b565b60405180910390fd5b610159565b5f82825260208201905092915050565b7f41646d696e20616464726573732063616e6e6f74206265207a65726f000000005f82015250565b5f610125601c836100e1565b9150610130826100f1565b602082019050919050565b5f6020820190508181035f83015261015281610119565b9050919050565b61122b806101665f395ff3fe608060405234801561000f575f80fd5b5060043610610055575f3560e01c806311dd8845146100595780635e6666801461008b5780638f283970146100a7578063c40e5824146100c3578063f851a440146100df575b5f80fd5b610073600480360381019061006e9190610927565b6100fd565b60405161008293929190610a1a565b60405180910390f35b6100a560048036038101906100a09190610a80565b610296565b005b6100c160048036038101906100bc9190610b62565b610487565b005b6100dd60048036038101906100d89190610927565b6105c4565b005b6100e76107b7565b6040516100f49190610b9c565b60405180910390f35b60605f805f846040516020016101139190610bef565b60405160208183030381529060405280519060200120905060015f8281526020019081526020015f2060020160019054906101000a900460ff1661018c576040517f08c379a000000000000000000000000000000000000000000000000000000000815260040161018390610c4f565b60405180910390fd5b5f60015f8381526020019081526020015f206040518060800160405290815f820180546101b890610c9a565b80601f01602080910402602001604051908101604052809291908181526020018280546101e490610c9a565b801561022f5780601f106102065761010080835404028352916020019161022f565b820191905f5260205f20905b81548152906001019060200180831161021257829003601f168201915b5050505050815260200160018201548152602001600282015f9054906101000a900460ff161515151581526020016002820160019054906101000a900460ff1615151515815250509050805f01518160200151826040015194509450945050509193909250565b5f8054906101000a900473ffffffffffffffffffffffffffffffffffffffff1673ffffffffffffffffffffffffffffffffffffffff163373ffffffffffffffffffffffffffffffffffffffff1614610323576040517f08c379a000000000000000000000000000000000000000000000000000000000815260040161031a90610d3a565b60405180910390fd5b5f836040516020016103359190610bef565b60405160208183030381529060405280519060200120905060015f8281526020019081526020015f2060020160019054906101000a900460ff16156103af576040517f08c379a00000000000000000000000000000000000000000000000000000000081526004016103a690610da2565b60405180910390fd5b60405180608001604052808481526020018381526020015f151581526020016001151581525060015f8381526020019081526020015f205f820151815f0190816103f99190610f5d565b50602082015181600101556040820151816002015f6101000a81548160ff02191690831515021790555060608201518160020160016101000a81548160ff0219169083151502179055509050507f2fda3ce68e3316f21c26863e3b64c0bca4dfc4d6cb5777ef08d41c56482e22218484846040516104799392919061102c565b60405180910390a150505050565b5f8054906101000a900473ffffffffffffffffffffffffffffffffffffffff1673ffffffffffffffffffffffffffffffffffffffff163373ffffffffffffffffffffffffffffffffffffffff1614610514576040517f08c379a000000000000000000000000000000000000000000000000000000000815260040161050b90610d3a565b60405180910390fd5b5f73ffffffffffffffffffffffffffffffffffffffff168173ffffffffffffffffffffffffffffffffffffffff1603610582576040517f08c379a0000000000000000000000000000000000000000000000000000000008152600401610579906110b9565b60405180910390fd5b805f806101000a81548173ffffffffffffffffffffffffffffffffffffffff021916908373ffffffffffffffffffffffffffffffffffffffff16021790555050565b5f8054906101000a900473ffffffffffffffffffffffffffffffffffffffff1673ffffffffffffffffffffffffffffffffffffffff163373ffffffffffffffffffffffffffffffffffffffff1614610651576040517f08c379a000000000000000000000000000000000000000000000000000000000815260040161064890610d3a565b60405180910390fd5b5f816040516020016106639190610bef565b60405160208183030381529060405280519060200120905060015f8281526020019081526020015f2060020160019054906101000a900460ff166106dc576040517f08c379a00000000000000000000000000000000000000000000000000000000081526004016106d390610c4f565b60405180910390fd5b60015f8281526020019081526020015f206002015f9054906101000a900460ff161561073d576040517f08c379a000000000000000000000000000000000000000000000000000000000815260040161073490611121565b60405180910390fd5b6001805f8381526020019081526020015f206002015f6101000a81548160ff0219169083151502179055507f3040b390146c69338e9bea2f176c79c2b1b5d3c7b0cc76c35a049b75733d1eb58260015f8481526020019081526020015f205f016040516107ab9291906111c0565b60405180910390a15050565b5f8054906101000a900473ffffffffffffffffffffffffffffffffffffffff1681565b5f604051905090565b5f80fd5b5f80fd5b5f80fd5b5f80fd5b5f601f19601f8301169050919050565b7f4e487b71000000000000000000000000000000000000000000000000000000005f52604160045260245ffd5b610839826107f3565b810181811067ffffffffffffffff8211171561085857610857610803565b5b80604052505050565b5f61086a6107da565b90506108768282610830565b919050565b5f67ffffffffffffffff82111561089557610894610803565b5b61089e826107f3565b9050602081019050919050565b828183375f83830152505050565b5f6108cb6108c68461087b565b610861565b9050828152602081018484840111156108e7576108e66107ef565b5b6108f28482856108ab565b509392505050565b5f82601f83011261090e5761090d6107eb565b5b813561091e8482602086016108b9565b91505092915050565b5f6020828403121561093c5761093b6107e3565b5b5f82013567ffffffffffffffff811115610959576109586107e7565b5b610965848285016108fa565b91505092915050565b5f81519050919050565b5f82825260208201905092915050565b5f5b838110156109a557808201518184015260208101905061098a565b5f8484015250505050565b5f6109ba8261096e565b6109c48185610978565b93506109d4818560208601610988565b6109dd816107f3565b840191505092915050565b5f819050919050565b6109fa816109e8565b82525050565b5f8115159050919050565b610a1481610a00565b82525050565b5f6060820190508181035f830152610a3281866109b0565b9050610a4160208301856109f1565b610a4e6040830184610a0b565b949350505050565b610a5f816109e8565b8114610a69575f80fd5b50565b5f81359050610a7a81610a56565b92915050565b5f805f60608486031215610a9757610a966107e3565b5b5f84013567ffffffffffffffff811115610ab457610ab36107e7565b5b610ac0868287016108fa565b935050602084013567ffffffffffffffff811115610ae157610ae06107e7565b5b610aed868287016108fa565b9250506040610afe86828701610a6c565b9150509250925092565b5f73ffffffffffffffffffffffffffffffffffffffff82169050919050565b5f610b3182610b08565b9050919050565b610b4181610b27565b8114610b4b575f80fd5b50565b5f81359050610b5c81610b38565b92915050565b5f60208284031215610b7757610b766107e3565b5b5f610b8484828501610b4e565b91505092915050565b610b9681610b27565b82525050565b5f602082019050610baf5f830184610b8d565b92915050565b5f81905092915050565b5f610bc98261096e565b610bd38185610bb5565b9350610be3818560208601610988565b80840191505092915050565b5f610bfa8284610bbf565b915081905092915050565b7f5265636f726420646f6573206e6f7420657869737400000000000000000000005f82015250565b5f610c39601583610978565b9150610c4482610c05565b602082019050919050565b5f6020820190508181035f830152610c6681610c2d565b9050919050565b7f4e487b71000000000000000000000000000000000000000000000000000000005f52602260045260245ffd5b5f6002820490506001821680610cb157607f821691505b602082108103610cc457610cc3610c6d565b5b50919050565b7f4f6e6c792061646d696e2063616e20706572666f726d207468697320616374695f8201527f6f6e000000000000000000000000000000000000000000000000000000000000602082015250565b5f610d24602283610978565b9150610d2f82610cca565b604082019050919050565b5f6020820190508181035f830152610d5181610d18565b9050919050565b7f5265636f726420616c72656164792065786973747300000000000000000000005f82015250565b5f610d8c601583610978565b9150610d9782610d58565b602082019050919050565b5f6020820190508181035f830152610db981610d80565b9050919050565b5f819050815f5260205f209050919050565b5f6020601f8301049050919050565b5f82821b905092915050565b5f60088302610e1c7fffffffffffffffffffffffffffffffffffffffffffffffffffffffffffffffff82610de1565b610e268683610de1565b95508019841693508086168417925050509392505050565b5f819050919050565b5f610e61610e5c610e57846109e8565b610e3e565b6109e8565b9050919050565b5f819050919050565b610e7a83610e47565b610e8e610e8682610e68565b848454610ded565b825550505050565b5f90565b610ea2610e96565b610ead818484610e71565b505050565b5b81811015610ed057610ec55f82610e9a565b600181019050610eb3565b5050565b601f821115610f1557610ee681610dc0565b610eef84610dd2565b81016020851015610efe578190505b610f12610f0a85610dd2565b830182610eb2565b50505b505050565b5f82821c905092915050565b5f610f355f1984600802610f1a565b1980831691505092915050565b5f610f4d8383610f26565b9150826002028217905092915050565b610f668261096e565b67ffffffffffffffff811115610f7f57610f7e610803565b5b610f898254610c9a565b610f94828285610ed4565b5f60209050601f831160018114610fc5575f8415610fb3578287015190505b610fbd8582610f42565b865550611024565b601f198416610fd386610dc0565b5f5b82811015610ffa57848901518255600182019150602085019450602081019050610fd5565b868310156110175784890151611013601f891682610f26565b8355505b6001600288020188555050505b505050505050565b5f6060820190508181035f83015261104481866109b0565b9050818103602083015261105881856109b0565b905061106760408301846109f1565b949350505050565b7f4e65772061646d696e2063616e6e6f74206265207a65726f20616464726573735f82015250565b5f6110a3602083610978565b91506110ae8261106f565b602082019050919050565b5f6020820190508181035f8301526110d081611097565b9050919050565b7f5265636f726420616c72656164792076657269666965640000000000000000005f82015250565b5f61110b601783610978565b9150611116826110d7565b602082019050919050565b5f6020820190508181035f830152611138816110ff565b9050919050565b5f815461114b81610c9a565b6111558186610978565b9450600182165f811461116f5760018114611185576111b7565b60ff1983168652811515602002860193506111b7565b61118e85610dc0565b5f5b838110156111af57815481890152600182019150602081019050611190565b808801955050505b50505092915050565b5f6040820190508181035f8301526111d881856109b0565b905081810360208301526111ec818461113f565b9050939250505056fea2646970667358221220ff8d82f7d4e1a30b4f51ba630221ad0152b0dcb98d9e7c0fef4b53c1d608f85664736f6c63430008150033",
  "immutableReferences": {},
  "source": "// SPDX-License-Identifier: MIT\npragma solidity ^0.8.0;\n\ncontract ExamRecords {\n    struct Record {\n        string examName;\n        uint256 score;\n        bool verified;\n        bool exists; // Ensures record existence is explicitly tracked\n    }\n\n    address public admin;\n    mapping(bytes32 => Record) private records;\n\n    event RecordAdded(string studentId, string examName, uint256 score);\n    event RecordVerified(string studentId, string examName);\n\n    modifier onlyAdmin() {\n        require(msg.sender == admin, \"Only admin can perform this action\");\n        _;\n    }\n\n    constructor() {\n        admin = msg.sender;\n        require(admin != address(0), \"Admin address cannot be zero\");\n    }\n\n    function addRecord(\n        string memory _studentId,\n        string memory _examName,\n        uint256 _score\n    ) public onlyAdmin {\n        bytes32 recordKey = keccak256(abi.encodePacked(_studentId));\n        require(!records[recordKey].exists, \"Record already exists\");\n\n        records[recordKey] = Record({\n            examName: _examName,\n            score: _score,\n            verified: false,\n            exists: true\n        });\n\n        emit RecordAdded(_studentId, _examName, _score);\n    }\n\n    function verifyRecord(string memory _studentId) public onlyAdmin {\n        bytes32 recordKey = keccak256(abi.encodePacked(_studentId));\n        require(records[recordKey].exists, \"Record does not exist\");\n        require(!records[recordKey].verified, \"Record already verified\");\n\n        records[recordKey].verified = true;\n\n        emit RecordVerified(_studentId, records[recordKey].examName);\n    }\n\n    function getRecord(\n        string memory _studentId\n    )\n        public\n        view\n        returns (string memory, uint256, bool)\n    {\n        bytes32 recordKey = keccak256(abi.encodePacked(_studentId));\n        require(records[recordKey].exists, \"Record does not exist\");\n\n        Record memory record = records[recordKey];\n        return (\n            record.examName,\n            record.score,\n            record.verified\n        );\n    }\n\n    function changeAdmin(address newAdmin) public onlyAdmin {\n        require(newAdmin != address(0), \"New admin cannot be zero address\");\n        admin = newAdmin;\n    }\n}\n",
  "sourcePath": "/Users/debdeepbanerjee/Desktop/Projects/Exam_Records-Blockchain-/blockchain/contracts/ExamRecords.sol",
  "compiler": {
    "name": "solc",
    "version": "0.8.21+commit.d9974bed.Emscripten.clang"
  },
  "schemaVersion": "3.4.16",
  "updatedAt": "2024-11-29T06:55:37.652Z",
  "networkType": "ethereum",
  "devdoc": {
    "kind": "dev",
    "methods": {},
    "version": 1
  },
  "userdoc": {
    "kind": "user",
    "methods": {},
    "version": 1
  }
}